:1070000086081F8B10CE1000CE1400BD7B4086FF7B
:107010009711CC1400DD044F5FDD00DD028E0864A3
:10702000ED81ED818C0B4425F78E0000E689708799
:10703000E7808C001F25F59F06BD74C79F08318D22
:107040000064BD74E5108C71DF25F78D0908537954
:107050006C2076312E33351010CE1000CE1400DCAB
:10706000083606BD7AD5BD7AABBD7A0FBD7A55BD5F
:10707000732BBD73B9BD757DBD7AAB20F2BD757D37
:10708000C63ABD7AB320CF034E494C015403656E16
:107090007603707267037265740551554F5445024B
:1070A000464E03464E51044C4F414409AA064C4FEC
:1070B0004144454409AD0452454144097F044556C5
:1070C000414C0982055052494E5409870750524994
:1070D0004E544C4E0991024E4C09960353594C089C
:1070E0000003454E5608040446524545080A024727
:1070F000430A080441544F4D0850044E554C4C0867
:107100005F024551086305455155414C086B0341E9
:107110004E440A35024F520A4D034E4F54089E0307
:107120004C455409D80353455409990453455451C7
:1071300009F00344454609C80652504C41434108F2
:107140003C0652504C4143440846013D086302212D
:107150003D08A2013C08AC013E08B2023C3D08B823
:10716000023E3D08BE0352454D0979034D494E0983
:1071700007034D41580915017C09210126092D01FC
:107180005E0939012B08DA012D08F8012A094501A9
:107190002F09730450524F470A6002474F0AA00656
:1071A00052455455524E09B004434F4E440A0E0402
:1071B0004C495354083B03434152080D0343445286
:1071C0000810044341445208150543414444520801
:1071D0001B0443444452082104434F4E530828BD26
:1071E0007A189E119F0A17009026048E000039C15C
:1071F0002D2620BD7A1F17008F2707BD7A41C62D87
:10720000201A1700BA1F104353C300018A801F01C0
:10721000C630398D7326051700A520F48D752637E5
:107220009E0630018C0800243C1700802602C4DF33
:10723000E780BD7A1F8D5C27EBBD7A411F10D00718
:107240005A9E06E784BD7301270A3410E6845C3A2F
:107250009F063510C62339BD70560A42616420432B
:107260006861722107BD70561041746F6D20706F98
:107270006F6C2066756C6C2107C128270AC129270D
:1072800006C12E2702C12739C1302506C139220285
:107290001A04398D1727148DEF2710C121250C8D65
:1072A000D834021FA888041F8A350239C141250E2F
:1072B000C15A2308C1612506C17A22021A0439C0C5
:1072C000304F1F01BD7A1F8DBF2616C03034041FFA
:1072D00010308B58495849308B308B35043085201D
:1072E000E38DC9270FBD7A418C3FFF2E071F108AFF
:1072F000801F0139BD70560942616420496E7421B6
:10730000073426108E0000109C06241B3430A6A4DF
:10731000E680E1A026094A2AF735164F352639318D
:10732000A63510326220E01CFB20F1DF0C0F0EBDF1
:1073300071DFC1302723C123271FC128271CC12784
:1073400026698DEB3610BD76093706ED843610CCF4
:107350000012BD76003706ED0239BD71DFC1292765
:10736000310C0E3414BD76091F10361635148DC23B
:107370001F10AEC4ED84BD71DFC1292729C12E279E
:10738000163414BD76091F10AEC4ED02EDC43514D9
:1073900020DC8E000020C28D961F10AEC4ED02BD11
:1073A00071DFC129260537160A0E39DE0CBD70566D
:1073B0000853796E74617821078C0800250B8C10B6
:1073C0000025108C7000251B398C001F25FABD7517
:1073D00041AE028C080025F08C080D24EB30896E3C
:1073E000E26E843610AE848DD08C001227508C084B
:1073F0000D25148C09D8254C8C0ACB25548C1400EF
:1074000025058C70002503371039EC841083001893
:1074100027221083001B26EF3610AE42AE0210AEBC
:10742000C410AEB8028D70AE42AE02AE9802BD730B
:10743000B93346393610AE42AE028D2020E0371007
:10744000AE98023930896EE234103710AE028D0CDE
:107450003930896EE234103710AE0239CC73B98CF2
:107460000000273234063610BD76091F103616AEDE
:1074700044AE84ADF41F10AEC4ED84AE44AE02271A
:107480000FAF44BD76091F10AEC4ED02EDC420DF7E
:10749000AE4233463262393630BD74C73610AE4420
:1074A000271EEC84AE02AF44AE42270810AE021095
:1074B000AF42AE84BD74CD1F10AEC4BD74FE20DEDD
:1074C00037063342EDC439CC00067E76003436BD33
:1074D00076093526ED8410AF023610BD76093706E1
:1074E000ED843520399E063410A6A4E6A0E7804A34
:1074F0002AF99F063506AEA18DD31F109E083420B1
:1075000010AE02ED021E02ED223520398D2134200D
:1075100010AE22270A10A3B4270D10AE2226F68D36
:10752000AC1F10351020D710AEA4AF223262393410
:10753000061F32CC000610A3B126FB10AE3E350666
:10754000393470CC0006118313FF222210AEC11013
:10755000A3A426F2AE2227EBECE410A3942706AEF8
:107560000226F720DEAE84AFE435701A0439357098
:10757000BD707D09756E626F756E642107BD75DA29
:107580002719BD75E2271FBD75EA271DBD75F627B2
:1075900041C63FBD7AB31F107E7AE51F1085402695
:1075A00002847F7E7B087E7AD5C628BD7AB33410EC
:1075B000AE848DC93510AE022713BD75EA2607C605
:1075C00020BD7AB320E8C62EBD7AB38DB0C6297E21
:1075D0007AB330896EE2C64020B98C800025021A49
:1075E00004398C080025F81CFB398C140025F88C14
:1075F000700025EB20F18C080025EC8C100020F2A7
:1076000034068D053506ED84399E002712EC02DD27
:1076100000CCFFFFD302DD024F5FED84ED02399E07
:10762000048C700024091F10C30004DD0420E98DC0
:10763000229E0026D8BD70560A4D656D2066756C79
:107640006C2107CC7000930444564456D3028A80C0
:107650001F0139344011831400245410AEC18D022F
:1076600020F3108C14002506108C700025013910B1
:10767000AFE31F295454CAF81F911F2083140044FC
:107680005644564456445644561F02E6A90864EA36
:107690008976AFE7A9086410AEE410AEA48DC310DC
:1076A000AEE110AE2220BB0102040810204080CEC3
:1076B0000864108E14008E00009F02E6C46FC0861E
:1076C00008109C04241454250AAF229E0230019F06
:1076D000021F2131244A26E920E19F0035408E0017
:1076E00000398E800D39BD752F1F21397E7643AE4E
:1076F0009439AE84AE0239AE84AE980239AE84AE0F
:107700000220F6AE84AE02AE0239EC84AE980236A8
:1077100016BD76093706ED843706ED023939EC845B
:10772000AE98021E01ED8439EC84AE98021E01ED84
:107730000239AE84BD75E227048E0000398E000444
:1077400039AE8420F2EC8410A3980220EAEC84AED7
:1077500098028D0220E1341010A3E12722BD75EAC2
:10776000261D1E01BD75EA26163416EC84AEF48D76
:10777000E53516260A3406EC023510AE028DD739EF
:10778000EC8420B3EC8410A3980226B120AB8D16B4
:107790002DAB20A58D102EA5209F8D0A2F9F2099FF
:1077A0008D042C992093EC98028D0A34068D0410D8
:1077B000A3E139EC8485402602847F39318D0015A0
:1077C0008DF13406AE0227068DE9ADA420F635060C
:1077D0008A801F0139E362ED6239318D000220E0B9
:1077E0003406EC64A3E1ED6239318D000220D11042
:1077F000A3622C02ED6239318D000220C310A36216
:107800002EF239318D000220B7AA62EA6320E531F9
:107810008D000220ABA462E46320D9318D000220E8
:107820009FA862E86320CD108E79C66FE2EC848D4C
:10783000153606EC98028D0E1F013706ADA466E0E2
:10784000248E8D0B208A85402603847F396C624309
:1078500053C3000139108E79E420D0108E79E920CD
:10786000CA7E732BAE847E73B9AE843610BD757D2F
:107870003710398DF48D01397E7AAB10AE84AE9815
:10788000021E12BD754110AF021F21397E7A087E9B
:107890007A0F3610BD7609CC000EED843720ECA4AB
:1078A000ED021F10BD79ADED3C39EC84AE98023687
:1078B00010109E08BD750E37103910AE84EC98027A
:1078C00036068E0000BD749737163606BD73B93381
:1078D000423910AE84AE98023420BD73B935201EF3
:1078E00012BD754110AF021F2139BD76537E76431C
:1078F0008C0000272110AE84AE023610AEA43620D4
:10790000BD73B937208C00002604371020E23342C3
:10791000AEB8027E73B9393610AE84BD73B91F128A
:107920003710108C00002704AE0226EB1F213936D9
:1079300010AE84BD73B937208C00002604AE222619
:10794000EE39361010AE848E0000BD7497CC000A5C
:10795000BD760010AE4210AE2210AF02AF4236200C
:10796000AEC4271B10AE02EC841083000E270E104D
:10797000AFC41083080025E8BD73B920E31F21338D
:107980004639EC848D272617AEA4AE02270D10A32E
:107990008426F7AE02AF3C8E0000398D2020E71F11
:1079A00001BD707D0843616E277420474F1F32AEC2
:1079B000A4BD75EA2607AE848C000A270831221080
:1079C0008C13FF25EA3934161F183D1E01E6613D70
:1079D0001F985F308BE6E4A6633D1F985F308B1FD6
:1079E000103264398D031E013934164F5F8E00103A
:1079F00068616960594910A3622504A3626C613013
:107A00001F26ED3510326239860197637E7B590D52
:107A100063270B0F637E7B5F8D05C12023FA39340A
:107A2000129E112B189C0F240BE689081330019F1E
:107A300011351239C60A8EFFFF9F0A20F28D1C20D5
:107A4000E03406DC1127072D08830001DD1135061F
:107A500039DC0F20F9CCFFFFDD11390D632703BDA1
:107A60007B5F8D5F8E00009F111700E227FBC12016
:107A70002513C17E22F38C005024EEE789081330D1
:107A8000018D3020E4C10826118C000027DB301F57
:107A90008D21C6208D1DC60820E7C10D2704C10A0F
:107AA00026C79F0F0D632703BD7B59C60D8D04C6E6
:107AB0000A2000C10A102600ACC60D1700A7C60A8E
:107AC0001600A20D63260D960E2709C6208DE48DA3
:107AD000E24A26F7393406A6802005E6808DD44A8E
:107AE00026F935063934061F898D023506340454CB
:107AF0005454548D0235043404C40FCB30C139239F
:107B000002CB078D603504394D2A163404C62DBDCD
:107B10007B65350434064353C30001BD7B21350624
:107B20003934168D033516391083000A250E8E0060
:107B30000ABD79E934041F108DEE3504CB302025C1
:107B40008603B7A0008695B7A0000F632011F6A0AA
:107B500000C4012703F6A0013986D5B7A0003986F5
:107B600095B7A0003934028602B5A00027FBF7A024
:047B700001350239A0
:00000001FF